{
  "_format": "hh-sol-artifact-1",
  "contractName": "OracleUpgradeable",
  "sourceName": "contracts/OracleUpgradeable.sol",
  "abi": [
    {
      "anonymous": false,
      "inputs": [
        {
          "indexed": false,
          "internalType": "uint8",
          "name": "version",
          "type": "uint8"
        }
      ],
      "name": "Initialized",
      "type": "event"
    },
    {
      "inputs": [],
      "name": "FN_NUM_GET_CONFIG_VARIABLE_ADDRESS",
      "outputs": [
        {
          "internalType": "address",
          "name": "",
          "type": "address"
        }
      ],
      "stateMutability": "view",
      "type": "function"
    },
    {
      "inputs": [],
      "name": "FN_NUM_GET_CONFIG_VARIABLE_STRING",
      "outputs": [
        {
          "internalType": "address",
          "name": "",
          "type": "address"
        }
      ],
      "stateMutability": "view",
      "type": "function"
    },
    {
      "inputs": [],
      "name": "FN_NUM_GET_CONFIG_VARIABLE_UINT256",
      "outputs": [
        {
          "internalType": "address",
          "name": "",
          "type": "address"
        }
      ],
      "stateMutability": "view",
      "type": "function"
    },
    {
      "inputs": [
        {
          "components": [
            {
              "internalType": "uint256",
              "name": "cid",
              "type": "uint256"
            },
            {
              "internalType": "string",
              "name": "uri",
              "type": "string"
            },
            {
              "internalType": "string[]",
              "name": "jsps",
              "type": "string[]"
            },
            {
              "internalType": "uint256[]",
              "name": "trims",
              "type": "uint256[]"
            },
            {
              "internalType": "string",
              "name": "post",
              "type": "string"
            },
            {
              "internalType": "uint256",
              "name": "time",
              "type": "uint256"
            },
            {
              "internalType": "string[]",
              "name": "rslts",
              "type": "string[]"
            },
            {
              "components": [
                {
                  "internalType": "uint8",
                  "name": "v",
                  "type": "uint8"
                },
                {
                  "internalType": "bytes32",
                  "name": "r",
                  "type": "bytes32"
                },
                {
                  "internalType": "bytes32",
                  "name": "s",
                  "type": "bytes32"
                }
              ],
              "internalType": "struct IVerifier.Signature[]",
              "name": "sigs",
              "type": "tuple[]"
            }
          ],
          "internalType": "struct IOracle.OracleResponse",
          "name": "response",
          "type": "tuple"
        }
      ],
      "name": "combineOracleResponse",
      "outputs": [
        {
          "internalType": "string",
          "name": "wholeData",
          "type": "string"
        }
      ],
      "stateMutability": "pure",
      "type": "function"
    },
    {
      "inputs": [
        {
          "internalType": "uint256",
          "name": "nodeIndex",
          "type": "uint256"
        }
      ],
      "name": "getNodeAddress",
      "outputs": [
        {
          "internalType": "address",
          "name": "",
          "type": "address"
        }
      ],
      "stateMutability": "view",
      "type": "function"
    },
    {
      "inputs": [],
      "name": "getNumberOfNodesInSchain",
      "outputs": [
        {
          "internalType": "uint256",
          "name": "",
          "type": "uint256"
        }
      ],
      "stateMutability": "view",
      "type": "function"
    },
    {
      "inputs": [],
      "name": "getTrustNumberOfNodes",
      "outputs": [
        {
          "internalType": "uint256",
          "name": "",
          "type": "uint256"
        }
      ],
      "stateMutability": "view",
      "type": "function"
    },
    {
      "inputs": [],
      "name": "initialize",
      "outputs": [],
      "stateMutability": "nonpayable",
      "type": "function"
    },
    {
      "inputs": [
        {
          "internalType": "bytes32",
          "name": "hashedMessage",
          "type": "bytes32"
        },
        {
          "components": [
            {
              "internalType": "uint8",
              "name": "v",
              "type": "uint8"
            },
            {
              "internalType": "bytes32",
              "name": "r",
              "type": "bytes32"
            },
            {
              "internalType": "bytes32",
              "name": "s",
              "type": "bytes32"
            }
          ],
          "internalType": "struct IVerifier.Signature[]",
          "name": "signatures",
          "type": "tuple[]"
        }
      ],
      "name": "verifyArrayOfSignatures",
      "outputs": [
        {
          "internalType": "bool",
          "name": "",
          "type": "bool"
        }
      ],
      "stateMutability": "view",
      "type": "function"
    },
    {
      "inputs": [
        {
          "components": [
            {
              "internalType": "uint256",
              "name": "cid",
              "type": "uint256"
            },
            {
              "internalType": "string",
              "name": "uri",
              "type": "string"
            },
            {
              "internalType": "string[]",
              "name": "jsps",
              "type": "string[]"
            },
            {
              "internalType": "uint256[]",
              "name": "trims",
              "type": "uint256[]"
            },
            {
              "internalType": "string",
              "name": "post",
              "type": "string"
            },
            {
              "internalType": "uint256",
              "name": "time",
              "type": "uint256"
            },
            {
              "internalType": "string[]",
              "name": "rslts",
              "type": "string[]"
            },
            {
              "components": [
                {
                  "internalType": "uint8",
                  "name": "v",
                  "type": "uint8"
                },
                {
                  "internalType": "bytes32",
                  "name": "r",
                  "type": "bytes32"
                },
                {
                  "internalType": "bytes32",
                  "name": "s",
                  "type": "bytes32"
                }
              ],
              "internalType": "struct IVerifier.Signature[]",
              "name": "sigs",
              "type": "tuple[]"
            }
          ],
          "internalType": "struct IOracle.OracleResponse",
          "name": "response",
          "type": "tuple"
        }
      ],
      "name": "verifyOracleResponse",
      "outputs": [
        {
          "internalType": "bool",
          "name": "",
          "type": "bool"
        }
      ],
      "stateMutability": "view",
      "type": "function"
    },
    {
      "inputs": [
        {
          "internalType": "uint256",
          "name": "nodeIndex",
          "type": "uint256"
        },
        {
          "internalType": "bytes32",
          "name": "hashedMessage",
          "type": "bytes32"
        },
        {
          "components": [
            {
              "internalType": "uint8",
              "name": "v",
              "type": "uint8"
            },
            {
              "internalType": "bytes32",
              "name": "r",
              "type": "bytes32"
            },
            {
              "internalType": "bytes32",
              "name": "s",
              "type": "bytes32"
            }
          ],
          "internalType": "struct IVerifier.Signature",
          "name": "signature",
          "type": "tuple"
        }
      ],
      "name": "verifySignature",
      "outputs": [
        {
          "internalType": "bool",
          "name": "",
          "type": "bool"
        }
      ],
      "stateMutability": "view",
      "type": "function"
    }
  ],
  "bytecode": "0x608060405234801561001057600080fd5b506119f7806100206000396000f3fe608060405234801561001057600080fd5b50600436106100a95760003560e01c80638e372c15116100715780638e372c151461012657806396ff22ba1461012e578063a113f65714610151578063ab2a585314610159578063abb8cd4714610161578063e2ea8f7a1461017457600080fd5b80632c61a469146100ae578063446e847f146100c95780635979da8c146100f45780636ae7ff60146101145780638129fc1c1461011c575b600080fd5b6100b6610187565b6040519081526020015b60405180910390f35b6100dc6100d7366004610fe6565b6101b1565b6040516001600160a01b0390911681526020016100c0565b6101076101023660046112ca565b6101ee565b6040516100c09190611430565b6100dc601481565b610124610221565b005b6100b661028e565b61014161013c366004611463565b6102b6565b60405190151581526020016100c0565b6100dc601581565b6100dc601381565b61014161016f3660046112ca565b6102f4565b610141610182366004611499565b61042f565b60008061019261028e565b905060036101a18260026114f6565b6101ab9190611524565b91505090565b6000806101bd8361051a565b6040516020016101cd9190611538565b60405160208183030381529060405290506101e78161061b565b9392505050565b606061021b826000015183602001518460400151856060015186608001518760a001518860c001516106df565b92915050565b600061022d6001610b25565b90508015610245576000805461ff0019166101001790555b801561028b576000805461ff0019169055604051600181527f7f26b83ff96e1f2b6a682f133852f6798a09c465da95921460cefb38474024989060200160405180910390a15b50565b60006102b16040518060600160405280602281526020016119a060229139610bad565b905090565b6000806102c2856101b1565b8351602085015160408601519293506102de9287929190610c66565b6001600160a01b03918216911614949350505050565b60008082604001515111801561031357508160c0015151826040015151145b80156103355750606082015151158061033557508160c0015151826060015151145b6103865760405162461bcd60e51b815260206004820152601b60248201527f496e636f7272656374206e756d626572206f6620726573756c7473000000000060448201526064015b60405180910390fd5b61038e61028e565b8260e0015151146103e15760405162461bcd60e51b815260206004820152601c60248201527f496e76616c6964206c656e677468206f66207369676e61747572657300000000604482015260640161037d565b60006103ec836101ee565b9050600081604051602001610401919061158e565b604051602081830303815290604052805190602001209050610427818560e0015161042f565b949350505050565b600080805b83518110156105085783818151811061044f5761044f6115aa565b60200260200101516000015160ff16600014158061048d57506000801b84828151811061047e5761047e6115aa565b60200260200101516020015114155b806104b857506000801b8482815181106104a9576104a96115aa565b60200260200101516040015114155b80156104e357506104e381868684815181106104d6576104d66115aa565b60200260200101516102b6565b156104f657816104f2816115c0565b9250505b80610500816115c0565b915050610434565b50610511610187565b11159392505050565b6060816000036105415750506040805180820190915260018152600360fc1b602082015290565b8160005b811561056b5780610555816115c0565b91506105649050600a83611524565b9150610545565b60008167ffffffffffffffff81111561058657610586610fff565b6040519080825280601f01601f1916602001820160405280156105b0576020820181803683370190505b5090505b8415610427576105c56001836115d9565b91506105d2600a866115f0565b6105dd9060306114f6565b60f81b8183815181106105f2576105f26115aa565b60200101906001600160f81b031916908160001a905350610614600a86611524565b94506105b4565b600080600060146001600160a01b031684604051610639919061158e565b600060405180830381855afa9150503d8060008114610674576040519150601f19603f3d011682016040523d82523d6000602084013e610679565b606091505b5091509150816106cb5760405162461bcd60e51b815260206004820152601960248201527f47657420636f6e6669672061646472657373206661696c656400000000000000604482015260640161037d565b6106d481610c8e565b60601c949350505050565b606060006106ec8961051a565b886040516020016106fe929190611604565b60408051601f198184030181528282019091526008825267226a737073223a5b60c01b6020830152915060005b6001895161073991906115d9565b8110156107905781898281518110610753576107536115aa565b602002602001015160405160200161076c929190611673565b60405160208183030381529060405291508080610788906115c0565b91505061072b565b50808860018a516107a191906115d9565b815181106107b1576107b16115aa565b60200260200101516040516020016107ca9291906116be565b60408051601f1981840301815260208301909152600082528851909250156108c45750604080518082019091526009815268227472696d73223a5b60b81b602082015260005b6001895161081e91906115d9565b81101561087d57816108488a838151811061083b5761083b6115aa565b602002602001015161051a565b60405160200161085992919061170a565b60405160208183030381529060405291508080610875906115c0565b915050610810565b50806108a18960018b5161089191906115d9565b8151811061083b5761083b6115aa565b6040516020016108b2929190611745565b60405160208183030381529060405290505b6040805160208101909152600081528751156108fd57876040516020016108eb9190611781565b60405160208183030381529060405290505b60006109088861051a565b60405160200161091891906117be565b60408051601f1981840301815282820190915260098252682272736c7473223a5b60b81b6020830152915060005b6001895161095491906115d9565b811015610a32578161099b8a8381518110610971576109716115aa565b6020026020010151604051806040016040528060048152602001631b9d5b1b60e21b815250610cea565b156109c357604051806040016040528060058152602001641b9d5b1b0b60da1b8152506109fd565b8982815181106109d5576109d56115aa565b60200260200101516040516020016109ed91906117f9565b6040516020818303038152906040525b604051602001610a0e92919061182f565b60405160208183030381529060405291508080610a2a906115c0565b915050610946565b5080610a568960018b51610a4691906115d9565b81518110610971576109716115aa565b15610a7f57604051806040016040528060068152602001651b9d5b1b174b60d21b815250610ac6565b8860018a51610a8e91906115d9565b81518110610a9e57610a9e6115aa565b6020026020010151604051602001610ab6919061185e565b6040516020818303038152906040525b604051602001610ad792919061182f565b6040516020818303038152906040529050858585858585604051602001610b0396959493929190611895565b6040516020818303038152906040529650505050505050979650505050505050565b60008054610100900460ff1615610b6c578160ff166001148015610b485750303b155b610b645760405162461bcd60e51b815260040161037d90611914565b506000919050565b60005460ff808416911610610b935760405162461bcd60e51b815260040161037d90611914565b506000805460ff191660ff92909216919091179055600190565b600080600060136001600160a01b031684604051610bcb919061158e565b600060405180830381855afa9150503d8060008114610c06576040519150601f19603f3d011682016040523d82523d6000602084013e610c0b565b606091505b509150915081610c5d5760405162461bcd60e51b815260206004820152601960248201527f47657420636f6e6669672075696e74323536206661696c656400000000000000604482015260640161037d565b61042781610c8e565b6000806000610c7787878787610d43565b91509150610c8481610e30565b5095945050505050565b60008151602014610ce15760405162461bcd60e51b815260206004820152601860248201527f496e636f7272656374206c656e677468206f6620646174610000000000000000604482015260640161037d565b61021b82611962565b600081604051602001610cfd919061158e565b6040516020818303038152906040528051906020012083604051602001610d24919061158e565b6040516020818303038152906040528051906020012014905092915050565b6000807f7fffffffffffffffffffffffffffffff5d576e7357a4501ddfe92f46681b20a0831115610d7a5750600090506003610e27565b8460ff16601b14158015610d9257508460ff16601c14155b15610da35750600090506004610e27565b6040805160008082526020820180845289905260ff881692820192909252606081018690526080810185905260019060a0016020604051602081039080840390855afa158015610df7573d6000803e3d6000fd5b5050604051601f1901519150506001600160a01b038116610e2057600060019250925050610e27565b9150600090505b94509492505050565b6000816004811115610e4457610e44611989565b03610e4c5750565b6001816004811115610e6057610e60611989565b03610ead5760405162461bcd60e51b815260206004820152601860248201527f45434453413a20696e76616c6964207369676e61747572650000000000000000604482015260640161037d565b6002816004811115610ec157610ec1611989565b03610f0e5760405162461bcd60e51b815260206004820152601f60248201527f45434453413a20696e76616c6964207369676e6174757265206c656e67746800604482015260640161037d565b6003816004811115610f2257610f22611989565b03610f7a5760405162461bcd60e51b815260206004820152602260248201527f45434453413a20696e76616c6964207369676e6174757265202773272076616c604482015261756560f01b606482015260840161037d565b6004816004811115610f8e57610f8e611989565b0361028b5760405162461bcd60e51b815260206004820152602260248201527f45434453413a20696e76616c6964207369676e6174757265202776272076616c604482015261756560f01b606482015260840161037d565b600060208284031215610ff857600080fd5b5035919050565b634e487b7160e01b600052604160045260246000fd5b604051610100810167ffffffffffffffff8111828210171561103957611039610fff565b60405290565b604051601f8201601f1916810167ffffffffffffffff8111828210171561106857611068610fff565b604052919050565b600082601f83011261108157600080fd5b813567ffffffffffffffff81111561109b5761109b610fff565b6110ae601f8201601f191660200161103f565b8181528460208386010111156110c357600080fd5b816020850160208301376000918101602001919091529392505050565b600067ffffffffffffffff8211156110fa576110fa610fff565b5060051b60200190565b600082601f83011261111557600080fd5b8135602061112a611125836110e0565b61103f565b82815260059290921b8401810191818101908684111561114957600080fd5b8286015b8481101561118957803567ffffffffffffffff81111561116d5760008081fd5b61117b8986838b0101611070565b84525091830191830161114d565b509695505050505050565b600082601f8301126111a557600080fd5b813560206111b5611125836110e0565b82815260059290921b840181019181810190868411156111d457600080fd5b8286015b8481101561118957803583529183019183016111d8565b60006060828403121561120157600080fd5b6040516060810181811067ffffffffffffffff8211171561122457611224610fff565b604052905080823560ff8116811461123b57600080fd5b8082525060208301356020820152604083013560408201525092915050565b600082601f83011261126b57600080fd5b8135602061127b611125836110e0565b8281526060928302850182019282820191908785111561129a57600080fd5b8387015b858110156112bd576112b089826111ef565b845292840192810161129e565b5090979650505050505050565b6000602082840312156112dc57600080fd5b813567ffffffffffffffff808211156112f457600080fd5b90830190610100828603121561130957600080fd5b611311611015565b8235815260208301358281111561132757600080fd5b61133387828601611070565b60208301525060408301358281111561134b57600080fd5b61135787828601611104565b60408301525060608301358281111561136f57600080fd5b61137b87828601611194565b60608301525060808301358281111561139357600080fd5b61139f87828601611070565b60808301525060a083013560a082015260c0830135828111156113c157600080fd5b6113cd87828601611104565b60c08301525060e0830135828111156113e557600080fd5b6113f18782860161125a565b60e08301525095945050505050565b60005b8381101561141b578181015183820152602001611403565b8381111561142a576000848401525b50505050565b602081526000825180602084015261144f816040850160208701611400565b601f01601f19169190910160400192915050565b600080600060a0848603121561147857600080fd5b833592506020840135915061149085604086016111ef565b90509250925092565b600080604083850312156114ac57600080fd5b82359150602083013567ffffffffffffffff8111156114ca57600080fd5b6114d68582860161125a565b9150509250929050565b634e487b7160e01b600052601160045260246000fd5b60008219821115611509576115096114e0565b500190565b634e487b7160e01b600052601260045260246000fd5b6000826115335761153361150e565b500490565b7f736b616c65436f6e6669672e73436861696e2e6e6f6465735b00000000000000815260008251611570816019850160208701611400565b662e9737bbb732b960c91b6019939091019283015250602001919050565b600082516115a0818460208701611400565b9190910192915050565b634e487b7160e01b600052603260045260246000fd5b6000600182016115d2576115d26114e0565b5060010190565b6000828210156115eb576115eb6114e0565b500390565b6000826115ff576115ff61150e565b500690565b663d9131b4b2111d60c91b81528251600090611627816007850160208801611400565b600b60fa1b60079184019182015266113ab934911d1160c91b6008820152835161165881600f840160208801611400565b61088b60f21b600f9290910191820152601101949350505050565b60008351611685818460208801611400565b601160f91b90830190815283516116a3816001840160208801611400565b61088b60f21b60019290910191820152600301949350505050565b600083516116d0818460208801611400565b601160f91b90830190815283516116ee816001840160208801611400565b6208974b60ea1b60019290910191820152600401949350505050565b6000835161171c818460208801611400565b835190830190611730818360208801611400565b600b60fa1b9101908152600101949350505050565b60008351611757818460208801611400565b83519083019061176b818360208801611400565b61174b60f21b9101908152600201949350505050565b67113837b9ba111d1160c11b815281516000906117a5816008850160208701611400565b61088b60f21b6008939091019283015250600a01919050565b66113a34b6b2911d60c91b815281516000906117e1816007850160208701611400565b600b60fa1b6007939091019283015250600801919050565b601160f91b81528151600090611816816001850160208701611400565b61088b60f21b6001939091019283015250600301919050565b60008351611841818460208801611400565b835190830190611855818360208801611400565b01949350505050565b601160f91b8152815160009061187b816001850160208701611400565b6208974b60ea1b6001939091019283015250600401919050565b6000875160206118a88285838d01611400565b8851918401916118bb8184848d01611400565b88519201916118cd8184848c01611400565b87519201916118df8184848b01611400565b86519201916118f18184848a01611400565b85519201916119038184848901611400565b919091019998505050505050505050565b6020808252602e908201527f496e697469616c697a61626c653a20636f6e747261637420697320616c72656160408201526d191e481a5b9a5d1a585b1a5e995960921b606082015260800190565b80516020808301519190811015611983576000198160200360031b1b821691505b50919050565b634e487b7160e01b600052602160045260246000fdfe736b616c65436f6e6669672e6e6f6465496e666f2e77616c6c6574732e696d612e6ea26469706673582212207fcf1f86af641f1e4874e91cba8f6fda51b91a9dec25cd822d0ebc048c71cae464736f6c634300080d0033",
  "linkReferences": {},
  "deployedLinkReferences": {}
}