{
  "_format": "hh-sol-artifact-1",
  "contractName": "Oracle",
  "sourceName": "contracts/Oracle.sol",
  "abi": [
    {
      "inputs": [],
      "name": "FN_NUM_GET_CONFIG_VARIABLE_ADDRESS",
      "outputs": [
        {
          "internalType": "address",
          "name": "",
          "type": "address"
        }
      ],
      "stateMutability": "view",
      "type": "function"
    },
    {
      "inputs": [],
      "name": "FN_NUM_GET_CONFIG_VARIABLE_STRING",
      "outputs": [
        {
          "internalType": "address",
          "name": "",
          "type": "address"
        }
      ],
      "stateMutability": "view",
      "type": "function"
    },
    {
      "inputs": [],
      "name": "FN_NUM_GET_CONFIG_VARIABLE_UINT256",
      "outputs": [
        {
          "internalType": "address",
          "name": "",
          "type": "address"
        }
      ],
      "stateMutability": "view",
      "type": "function"
    },
    {
      "inputs": [
        {
          "components": [
            {
              "internalType": "uint256",
              "name": "cid",
              "type": "uint256"
            },
            {
              "internalType": "string",
              "name": "uri",
              "type": "string"
            },
            {
              "internalType": "string[]",
              "name": "jsps",
              "type": "string[]"
            },
            {
              "internalType": "uint256[]",
              "name": "trims",
              "type": "uint256[]"
            },
            {
              "internalType": "string",
              "name": "post",
              "type": "string"
            },
            {
              "internalType": "uint256",
              "name": "time",
              "type": "uint256"
            },
            {
              "internalType": "string[]",
              "name": "rslts",
              "type": "string[]"
            },
            {
              "components": [
                {
                  "internalType": "uint8",
                  "name": "v",
                  "type": "uint8"
                },
                {
                  "internalType": "bytes32",
                  "name": "r",
                  "type": "bytes32"
                },
                {
                  "internalType": "bytes32",
                  "name": "s",
                  "type": "bytes32"
                }
              ],
              "internalType": "struct IVerifier.Signature[]",
              "name": "sigs",
              "type": "tuple[]"
            }
          ],
          "internalType": "struct IOracle.OracleResponse",
          "name": "response",
          "type": "tuple"
        }
      ],
      "name": "combineOracleResponse",
      "outputs": [
        {
          "internalType": "string",
          "name": "wholeData",
          "type": "string"
        }
      ],
      "stateMutability": "pure",
      "type": "function"
    },
    {
      "inputs": [
        {
          "internalType": "uint256",
          "name": "nodeIndex",
          "type": "uint256"
        }
      ],
      "name": "getNodeAddress",
      "outputs": [
        {
          "internalType": "address",
          "name": "",
          "type": "address"
        }
      ],
      "stateMutability": "view",
      "type": "function"
    },
    {
      "inputs": [],
      "name": "getNumberOfNodesInSchain",
      "outputs": [
        {
          "internalType": "uint256",
          "name": "",
          "type": "uint256"
        }
      ],
      "stateMutability": "view",
      "type": "function"
    },
    {
      "inputs": [],
      "name": "getTrustNumberOfNodes",
      "outputs": [
        {
          "internalType": "uint256",
          "name": "",
          "type": "uint256"
        }
      ],
      "stateMutability": "view",
      "type": "function"
    },
    {
      "inputs": [
        {
          "internalType": "bytes32",
          "name": "hashedMessage",
          "type": "bytes32"
        },
        {
          "components": [
            {
              "internalType": "uint8",
              "name": "v",
              "type": "uint8"
            },
            {
              "internalType": "bytes32",
              "name": "r",
              "type": "bytes32"
            },
            {
              "internalType": "bytes32",
              "name": "s",
              "type": "bytes32"
            }
          ],
          "internalType": "struct IVerifier.Signature[]",
          "name": "signatures",
          "type": "tuple[]"
        }
      ],
      "name": "verifyArrayOfSignatures",
      "outputs": [
        {
          "internalType": "bool",
          "name": "",
          "type": "bool"
        }
      ],
      "stateMutability": "view",
      "type": "function"
    },
    {
      "inputs": [
        {
          "components": [
            {
              "internalType": "uint256",
              "name": "cid",
              "type": "uint256"
            },
            {
              "internalType": "string",
              "name": "uri",
              "type": "string"
            },
            {
              "internalType": "string[]",
              "name": "jsps",
              "type": "string[]"
            },
            {
              "internalType": "uint256[]",
              "name": "trims",
              "type": "uint256[]"
            },
            {
              "internalType": "string",
              "name": "post",
              "type": "string"
            },
            {
              "internalType": "uint256",
              "name": "time",
              "type": "uint256"
            },
            {
              "internalType": "string[]",
              "name": "rslts",
              "type": "string[]"
            },
            {
              "components": [
                {
                  "internalType": "uint8",
                  "name": "v",
                  "type": "uint8"
                },
                {
                  "internalType": "bytes32",
                  "name": "r",
                  "type": "bytes32"
                },
                {
                  "internalType": "bytes32",
                  "name": "s",
                  "type": "bytes32"
                }
              ],
              "internalType": "struct IVerifier.Signature[]",
              "name": "sigs",
              "type": "tuple[]"
            }
          ],
          "internalType": "struct IOracle.OracleResponse",
          "name": "response",
          "type": "tuple"
        }
      ],
      "name": "verifyOracleResponse",
      "outputs": [
        {
          "internalType": "bool",
          "name": "",
          "type": "bool"
        }
      ],
      "stateMutability": "view",
      "type": "function"
    },
    {
      "inputs": [
        {
          "internalType": "uint256",
          "name": "nodeIndex",
          "type": "uint256"
        },
        {
          "internalType": "bytes32",
          "name": "hashedMessage",
          "type": "bytes32"
        },
        {
          "components": [
            {
              "internalType": "uint8",
              "name": "v",
              "type": "uint8"
            },
            {
              "internalType": "bytes32",
              "name": "r",
              "type": "bytes32"
            },
            {
              "internalType": "bytes32",
              "name": "s",
              "type": "bytes32"
            }
          ],
          "internalType": "struct IVerifier.Signature",
          "name": "signature",
          "type": "tuple"
        }
      ],
      "name": "verifySignature",
      "outputs": [
        {
          "internalType": "bool",
          "name": "",
          "type": "bool"
        }
      ],
      "stateMutability": "view",
      "type": "function"
    }
  ],
  "bytecode": "0x608060405234801561001057600080fd5b506118a2806100206000396000f3fe608060405234801561001057600080fd5b506004361061009e5760003560e01c806396ff22ba1161006657806396ff22ba14610119578063a113f6571461013c578063ab2a585314610144578063abb8cd471461014c578063e2ea8f7a1461015f57600080fd5b80632c61a469146100a3578063446e847f146100be5780635979da8c146100e95780636ae7ff60146101095780638e372c1514610111575b600080fd5b6100ab610172565b6040519081526020015b60405180910390f35b6100d16100cc366004610edf565b61019c565b6040516001600160a01b0390911681526020016100b5565b6100fc6100f73660046111c3565b6101d9565b6040516100b59190611329565b6100d1601481565b6100ab61020c565b61012c61012736600461135c565b610234565b60405190151581526020016100b5565b6100d1601581565b6100d1601381565b61012c61015a3660046111c3565b610272565b61012c61016d366004611392565b6103ad565b60008061017d61020c565b9050600361018c8260026113ef565b610196919061141d565b91505090565b6000806101a883610498565b6040516020016101b89190611431565b60405160208183030381529060405290506101d281610599565b9392505050565b6060610206826000015183602001518460400151856060015186608001518760a001518860c0015161065d565b92915050565b600061022f60405180606001604052806022815260200161184b60229139610aa3565b905090565b6000806102408561019c565b83516020850151604086015192935061025c9287929190610b5c565b6001600160a01b03918216911614949350505050565b60008082604001515111801561029157508160c0015151826040015151145b80156102b3575060608201515115806102b357508160c0015151826060015151145b6103045760405162461bcd60e51b815260206004820152601b60248201527f496e636f7272656374206e756d626572206f6620726573756c7473000000000060448201526064015b60405180910390fd5b61030c61020c565b8260e00151511461035f5760405162461bcd60e51b815260206004820152601c60248201527f496e76616c6964206c656e677468206f66207369676e6174757265730000000060448201526064016102fb565b600061036a836101d9565b905060008160405160200161037f9190611487565b6040516020818303038152906040528051906020012090506103a5818560e001516103ad565b949350505050565b600080805b8351811015610486578381815181106103cd576103cd6114a3565b60200260200101516000015160ff16600014158061040b57506000801b8482815181106103fc576103fc6114a3565b60200260200101516020015114155b8061043657506000801b848281518110610427576104276114a3565b60200260200101516040015114155b801561046157506104618186868481518110610454576104546114a3565b6020026020010151610234565b156104745781610470816114b9565b9250505b8061047e816114b9565b9150506103b2565b5061048f610172565b11159392505050565b6060816000036104bf5750506040805180820190915260018152600360fc1b602082015290565b8160005b81156104e957806104d3816114b9565b91506104e29050600a8361141d565b91506104c3565b60008167ffffffffffffffff81111561050457610504610ef8565b6040519080825280601f01601f19166020018201604052801561052e576020820181803683370190505b5090505b84156103a5576105436001836114d2565b9150610550600a866114e9565b61055b9060306113ef565b60f81b818381518110610570576105706114a3565b60200101906001600160f81b031916908160001a905350610592600a8661141d565b9450610532565b600080600060146001600160a01b0316846040516105b79190611487565b600060405180830381855afa9150503d80600081146105f2576040519150601f19603f3d011682016040523d82523d6000602084013e6105f7565b606091505b5091509150816106495760405162461bcd60e51b815260206004820152601960248201527f47657420636f6e6669672061646472657373206661696c65640000000000000060448201526064016102fb565b61065281610b84565b60601c949350505050565b6060600061066a89610498565b8860405160200161067c9291906114fd565b60408051601f198184030181528282019091526008825267226a737073223a5b60c01b6020830152915060005b600189516106b791906114d2565b81101561070e57818982815181106106d1576106d16114a3565b60200260200101516040516020016106ea92919061156c565b60405160208183030381529060405291508080610706906114b9565b9150506106a9565b50808860018a5161071f91906114d2565b8151811061072f5761072f6114a3565b60200260200101516040516020016107489291906115b7565b60408051601f1981840301815260208301909152600082528851909250156108425750604080518082019091526009815268227472696d73223a5b60b81b602082015260005b6001895161079c91906114d2565b8110156107fb57816107c68a83815181106107b9576107b96114a3565b6020026020010151610498565b6040516020016107d7929190611603565b604051602081830303815290604052915080806107f3906114b9565b91505061078e565b508061081f8960018b5161080f91906114d2565b815181106107b9576107b96114a3565b60405160200161083092919061163e565b60405160208183030381529060405290505b60408051602081019091526000815287511561087b5787604051602001610869919061167a565b60405160208183030381529060405290505b600061088688610498565b60405160200161089691906116b7565b60408051601f1981840301815282820190915260098252682272736c7473223a5b60b81b6020830152915060005b600189516108d291906114d2565b8110156109b057816109198a83815181106108ef576108ef6114a3565b6020026020010151604051806040016040528060048152602001631b9d5b1b60e21b815250610be0565b1561094157604051806040016040528060058152602001641b9d5b1b0b60da1b81525061097b565b898281518110610953576109536114a3565b602002602001015160405160200161096b91906116f2565b6040516020818303038152906040525b60405160200161098c929190611728565b604051602081830303815290604052915080806109a8906114b9565b9150506108c4565b50806109d48960018b516109c491906114d2565b815181106108ef576108ef6114a3565b156109fd57604051806040016040528060068152602001651b9d5b1b174b60d21b815250610a44565b8860018a51610a0c91906114d2565b81518110610a1c57610a1c6114a3565b6020026020010151604051602001610a349190611757565b6040516020818303038152906040525b604051602001610a55929190611728565b6040516020818303038152906040529050858585858585604051602001610a819695949392919061178e565b6040516020818303038152906040529650505050505050979650505050505050565b600080600060136001600160a01b031684604051610ac19190611487565b600060405180830381855afa9150503d8060008114610afc576040519150601f19603f3d011682016040523d82523d6000602084013e610b01565b606091505b509150915081610b535760405162461bcd60e51b815260206004820152601960248201527f47657420636f6e6669672075696e74323536206661696c65640000000000000060448201526064016102fb565b6103a581610b84565b6000806000610b6d87878787610c39565b91509150610b7a81610d26565b5095945050505050565b60008151602014610bd75760405162461bcd60e51b815260206004820152601860248201527f496e636f7272656374206c656e677468206f662064617461000000000000000060448201526064016102fb565b6102068261180d565b600081604051602001610bf39190611487565b6040516020818303038152906040528051906020012083604051602001610c1a9190611487565b6040516020818303038152906040528051906020012014905092915050565b6000807f7fffffffffffffffffffffffffffffff5d576e7357a4501ddfe92f46681b20a0831115610c705750600090506003610d1d565b8460ff16601b14158015610c8857508460ff16601c14155b15610c995750600090506004610d1d565b6040805160008082526020820180845289905260ff881692820192909252606081018690526080810185905260019060a0016020604051602081039080840390855afa158015610ced573d6000803e3d6000fd5b5050604051601f1901519150506001600160a01b038116610d1657600060019250925050610d1d565b9150600090505b94509492505050565b6000816004811115610d3a57610d3a611834565b03610d425750565b6001816004811115610d5657610d56611834565b03610da35760405162461bcd60e51b815260206004820152601860248201527f45434453413a20696e76616c6964207369676e6174757265000000000000000060448201526064016102fb565b6002816004811115610db757610db7611834565b03610e045760405162461bcd60e51b815260206004820152601f60248201527f45434453413a20696e76616c6964207369676e6174757265206c656e6774680060448201526064016102fb565b6003816004811115610e1857610e18611834565b03610e705760405162461bcd60e51b815260206004820152602260248201527f45434453413a20696e76616c6964207369676e6174757265202773272076616c604482015261756560f01b60648201526084016102fb565b6004816004811115610e8457610e84611834565b03610edc5760405162461bcd60e51b815260206004820152602260248201527f45434453413a20696e76616c6964207369676e6174757265202776272076616c604482015261756560f01b60648201526084016102fb565b50565b600060208284031215610ef157600080fd5b5035919050565b634e487b7160e01b600052604160045260246000fd5b604051610100810167ffffffffffffffff81118282101715610f3257610f32610ef8565b60405290565b604051601f8201601f1916810167ffffffffffffffff81118282101715610f6157610f61610ef8565b604052919050565b600082601f830112610f7a57600080fd5b813567ffffffffffffffff811115610f9457610f94610ef8565b610fa7601f8201601f1916602001610f38565b818152846020838601011115610fbc57600080fd5b816020850160208301376000918101602001919091529392505050565b600067ffffffffffffffff821115610ff357610ff3610ef8565b5060051b60200190565b600082601f83011261100e57600080fd5b8135602061102361101e83610fd9565b610f38565b82815260059290921b8401810191818101908684111561104257600080fd5b8286015b8481101561108257803567ffffffffffffffff8111156110665760008081fd5b6110748986838b0101610f69565b845250918301918301611046565b509695505050505050565b600082601f83011261109e57600080fd5b813560206110ae61101e83610fd9565b82815260059290921b840181019181810190868411156110cd57600080fd5b8286015b8481101561108257803583529183019183016110d1565b6000606082840312156110fa57600080fd5b6040516060810181811067ffffffffffffffff8211171561111d5761111d610ef8565b604052905080823560ff8116811461113457600080fd5b8082525060208301356020820152604083013560408201525092915050565b600082601f83011261116457600080fd5b8135602061117461101e83610fd9565b8281526060928302850182019282820191908785111561119357600080fd5b8387015b858110156111b6576111a989826110e8565b8452928401928101611197565b5090979650505050505050565b6000602082840312156111d557600080fd5b813567ffffffffffffffff808211156111ed57600080fd5b90830190610100828603121561120257600080fd5b61120a610f0e565b8235815260208301358281111561122057600080fd5b61122c87828601610f69565b60208301525060408301358281111561124457600080fd5b61125087828601610ffd565b60408301525060608301358281111561126857600080fd5b6112748782860161108d565b60608301525060808301358281111561128c57600080fd5b61129887828601610f69565b60808301525060a083013560a082015260c0830135828111156112ba57600080fd5b6112c687828601610ffd565b60c08301525060e0830135828111156112de57600080fd5b6112ea87828601611153565b60e08301525095945050505050565b60005b838110156113145781810151838201526020016112fc565b83811115611323576000848401525b50505050565b60208152600082518060208401526113488160408501602087016112f9565b601f01601f19169190910160400192915050565b600080600060a0848603121561137157600080fd5b833592506020840135915061138985604086016110e8565b90509250925092565b600080604083850312156113a557600080fd5b82359150602083013567ffffffffffffffff8111156113c357600080fd5b6113cf85828601611153565b9150509250929050565b634e487b7160e01b600052601160045260246000fd5b60008219821115611402576114026113d9565b500190565b634e487b7160e01b600052601260045260246000fd5b60008261142c5761142c611407565b500490565b7f736b616c65436f6e6669672e73436861696e2e6e6f6465735b000000000000008152600082516114698160198501602087016112f9565b662e9737bbb732b960c91b6019939091019283015250602001919050565b600082516114998184602087016112f9565b9190910192915050565b634e487b7160e01b600052603260045260246000fd5b6000600182016114cb576114cb6113d9565b5060010190565b6000828210156114e4576114e46113d9565b500390565b6000826114f8576114f8611407565b500690565b663d9131b4b2111d60c91b815282516000906115208160078501602088016112f9565b600b60fa1b60079184019182015266113ab934911d1160c91b6008820152835161155181600f8401602088016112f9565b61088b60f21b600f9290910191820152601101949350505050565b6000835161157e8184602088016112f9565b601160f91b908301908152835161159c8160018401602088016112f9565b61088b60f21b60019290910191820152600301949350505050565b600083516115c98184602088016112f9565b601160f91b90830190815283516115e78160018401602088016112f9565b6208974b60ea1b60019290910191820152600401949350505050565b600083516116158184602088016112f9565b8351908301906116298183602088016112f9565b600b60fa1b9101908152600101949350505050565b600083516116508184602088016112f9565b8351908301906116648183602088016112f9565b61174b60f21b9101908152600201949350505050565b67113837b9ba111d1160c11b8152815160009061169e8160088501602087016112f9565b61088b60f21b6008939091019283015250600a01919050565b66113a34b6b2911d60c91b815281516000906116da8160078501602087016112f9565b600b60fa1b6007939091019283015250600801919050565b601160f91b8152815160009061170f8160018501602087016112f9565b61088b60f21b6001939091019283015250600301919050565b6000835161173a8184602088016112f9565b83519083019061174e8183602088016112f9565b01949350505050565b601160f91b815281516000906117748160018501602087016112f9565b6208974b60ea1b6001939091019283015250600401919050565b6000875160206117a18285838d016112f9565b8851918401916117b48184848d016112f9565b88519201916117c68184848c016112f9565b87519201916117d88184848b016112f9565b86519201916117ea8184848a016112f9565b85519201916117fc81848489016112f9565b919091019998505050505050505050565b8051602080830151919081101561182e576000198160200360031b1b821691505b50919050565b634e487b7160e01b600052602160045260246000fdfe736b616c65436f6e6669672e6e6f6465496e666f2e77616c6c6574732e696d612e6ea2646970667358221220cd2bbfb5b73eeec4aedb3e6eef5db96db90e88e228e2dced29f43672fc4fab4864736f6c634300080d0033",
  "linkReferences": {},
  "deployedLinkReferences": {}
}